:020000040800F2
:1000000000090020D5000008DD000008DF0000081E
:1000100000000000000000000000000000000000E0
:10002000000000000000000000000000E1000008E7
:100030000000000000000000E30000086D2F000831
:10004000E7000008392E0008E7000008E700000874
:10005000E700000869090008E700000877090008C0
:10006000000000002509000835090008E700000825
:10007000E7000008E700000800000000E7000008B3
:1000800000000000E7000008000000000000000081
:100090005130000800000000E7000008E7000008F9
:1000A000E7000008E7000008E7000008E700000894
:1000B000E7000008612700080000000000000000C1
:1000C0000348854600F06EFA00480047E53F000807
:1000D000000900200448804704480047FEE7FEE787
:1000E000FEE7FEE7FEE7FEE7FD2F0008C10000087F
:1000F00030B50B46014600202022012409E00D46C0
:10010000D5409D4205D31D469540491B2546954047
:1001100040191546521E002DF1DC30BD03460B433D
:100120009B0703D009E008C9121F08C0042AFAD2AD
:1001300003E00B780370401C491C521EF9D2704733
:10014000D2B201E00270401C491EFBD2704700226F
:10015000F6E710B513460A4604461946FFF7F0FFC6
:10016000204610BD024670B54A40D30FDB07400061
:100170002DD04A002AD0010E140E000212020919D5
:10018000400A520A8418E50104465443000A120A40
:100190002E045043A4194219200CC543AA18120C6E
:1001A0000125AD03521C521912047F39240400D0DA
:1001B000521C104301D44000491EC2B20C06C009B3
:1001C0002018401C4008802A02D003E0002070BDA7
:1001D00040084000002900DA0020184370BD70B5C7
:1001E00002464A40D50F40004A00ED074008520839
:1001F000002814D0002A12D0C40DD30D41020120D2
:10020000C0055202490A520AE41A091812187D342C
:10021000914201D3641C00E04900002C01DA002067
:1002200070BD0023914201D3891A0343400849005D
:100230000028F7D100290AD0914202D10121C90733
:1002400005E0914201D2012101E00121C943E0050D
:10025000C018401900F005F970BD420005D04200F9
:10026000120E52428A4201DB00207047C90508186D
:1002700070470000F0B50C465C4085B0E40FE40721
:1002800003944C000026640859009446490802462D
:100290000296224321D062460A431ED06200570DC7
:1002A0004A000E032303550D012402462C49240560
:1002B000781B1B0B360B40182343264361460090E6
:1002C0001C46501AB44103D30098401C009002E031
:1002D000921800985B41002803DA0020014605B01F
:1002E000F0BD0020012109050746864611E064465D
:1002F0001D46141BB54106D36546521BB3417446D7
:1003000007430C43A646CD074008490828439218E6
:100310005B4105460D43EAD11046184313D06046B1
:10032000194650407140084306D06046101AB34148
:1003300006D20122002306E000220123DB0702E0AF
:100340000122D2435310009874460105381C6141C4
:10035000029C039D0019694100F0C4F8BFE700004A
:10036000FD03000070B54B005B0803430BD04B004E
:100370005C0D002633466542B341D417AD1AA34144
:1003800002DB0020014670BD12053018514170BDDE
:1003900010B500229623114600F06BF810BD000046
:1003A0000EB505490291002100910A460B460191C4
:1003B00000F0A5F803B000BD330400004100400286
:1003C0000122400AD205090E80187F2901DA002097
:1003D0007047962903DC9622511AC8407047963917
:1003E000884070474A0009030123090B1B05194384
:1003F000094B10B5520D9A4201DA002010BD064B90
:1004000034339A4203DC9A1A00F01AF810BD0349FB
:100410005118884010BD0000FF030000CDFBFFFF16
:1004200010B5202A04DB0146203A9140002010BD7F
:10043000914020239C1A0346E3401943904010BD8D
:1004400010B5202A04DB0846203AD040002110BD18
:100450000B46D340D0402024A21A914008431946AD
:1004600010BD002904DA401C490001D140084000B9
:10047000704770B40024050C05D11024000402D18B
:10048000002921D01124050E01D100020834050FE6
:1004900001D10001241D850F01D18000A41C00287A
:1004A00001DB4000641C002908D020252E1B0D46CE
:1004B000F540A14000D001212943084301061B1B40
:1004C000000ADB1D02D5002070BC7047DB05181840
:1004D00080180029F8DA401C4900F5D170BC4008AA
:1004E0004000704710B5002B08DA0024401C614121
:1004F00092185B411A4301D14008400010BDF0B58D
:100500001FB482B005460C0003D0084603F046FA3B
:1005100002E003F043FA20300246009021462846CC
:10052000FFF77EFF049B059A04460F4618431143CC
:10053000084314D0184610431BD0009840210A1AD3
:1005400018460599FFF77CFF05460E46009A059967
:100550000498FFF765FF084305D0012004E020461A
:10056000394607B0F0BD0020C11705430E432C43A8
:10057000374300990E986305401A7905E40A002272
:100580000C43FD0A0A3002D500200146E9E70105C7
:10059000101969410C9C0D9D00196941FFF7A2FFDC
:1005A000DFE70000064C0125064E05E0E36807CCB6
:1005B0002B430C3C98471034B442F7D3FFF784FD2B
:1005C000504400087044000870B5044620688168F3
:1005D000490723D5816810254907002905DA816874
:1005E000890702D481682943816001F017F8064623
:1005F00020688068400711D501F010F8801B0A2898
:1006000008D9A06D2843A065E06D01210843E0658D
:10061000012070BD206880684007EDD4002070BDC7
:1006200010B50246906A816D502319420AD1816D3E
:1006300001225202114381650168CA681205920FB6
:1006400005D020E0006D416B1046884710BD826ADE
:10065000002A18D10A68120715D58A6801235207A3
:10066000002A09DB4A680C24A2434A60816D1A0201
:1006700091431943816506E0816D20221143816514
:10068000C16D1943C16500F0B1FA10BD10B5806AA3
:10069000816D402211438165C16D04221143C16502
:1006A00000F0A6FA10BD10B5806A00F0A0FA10BDE7
:1006B00038B50446094808490068FFF719FD60434A
:1006C00000900098002805D00098401E00900098E7
:1006D0000028F9D138BD000040420F00240000205E
:1006E000F8B50446206881688907890F012930D14F
:1006F0000168C9072DD08168052211401025012607
:10070000012907D0A06D2843A065E06D3043E06566
:100710000120F8BD81680222114381602168032015
:10072000086000F07BFF074620688068C00710D093
:1007300000F074FFC01B0A2807D9A06D2843A065EC
:10074000E06D3043E0650120F8BD20688068C00797
:10075000EED10020F8BD0000F8B50446206881689D
:100760008907890F012902D10168C9072ED1816843
:10077000174A102611400125002907D0A06D3043EB
:10078000A065E06D2843E0650120F8BD816829433C
:1007900081600120FFF78CFF00F040FF07462068D2
:1007A0000068C043C00711D000F038FFC01B0A2802
:1007B00007D9A06D3043A065E06D2843E0650120B6
:1007C000F8BD20680068C043C007EDD10020F8BD27
:1007D0001700008070B5012149020F4C4D10002810
:1007E0000FD001280FD002280FD0032808D10122F2
:1007F000204600F00CFF01222946204600F007FFAA
:1008000070BD002202E00022F2E70122204600F043
:10081000FEFE0022F0E70000000400508AB210B58E
:1008200001460123014801F0F5FE10BD88000020BB
:1008300010B5044C8021204600F0E2FE0028F9D0DB
:1008400010BD00000004005070B505460C460020A5
:10085000FFF7C0FF052000F095FD21462846FFF771
:10086000DDFFFFF7E5FF70BD70B596B00546442289
:100870001D4904A8FFF752FC1CA00FC86C460FC40A
:100880004B20C00102F086FF1C4C01202077032082
:10089000FFF7A0FF1A4E8021304600F0B1FE00287D
:1008A000F9D07D20C00000F06DFD68002A1804A872
:1008B000835C6946CB71101842780A72807848725E
:1008C00001230F220F4801F0A5FEFF20913000F018
:1008D00059FD00202077FFF77DFF4B20400202F0FA
:1008E00059FF16B070BD00000C440008FF56AE352D
:1008F000A95590069B68000705000600D804002053
:10090000000400508800002010B5044C04482178F1
:10091000FFF71DFC0020207010BD00000200002029
:100920008C01002010B5024800F03AFB10BD000019
:100930002404002010B5024800F032FB10BD000076
:10094000F800002010B4046863608368102B05D0A1
:10095000036899600068C26010BC704703689A60C1
:100960000068C16010BC704710B501F049FB012060
:1009700000F08CFD10BD10B5802000F087FD012037
:10098000C00300F083FD10BD1A498869C2051A48EA
:1009900003D5426908231A4342618A69920503D547
:1009A000426904231A4342618A69520503D54269A8
:1009B00002231A4342618A69120503D54269102352
:1009C0001A4342618A69920403D5426901231A439A
:1009D00042618A69920303D5426920231A43426126
:1009E0008A69D20303D5426940231A43426103480E
:1009F000886170470020024060040020002F03003F
:100A000070B5044600F00AFE05461D4EB069C043AD
:100A1000C0070ED1601C08D0002C04D000F0FEFDF1
:100A2000401BA04201D9032070BDB069C043C0077C
:100A3000F0D0B069800701D50220B061B069C04331
:100A4000C00517D5B069C043800513D5B069C04350
:100A500040050FD5B069C04300050BD5B069C04350
:100A6000800407D5B069C043800303D5B069C04393
:100A7000C00303D4FFF788FF012070BD002070BDC4
:100A800000200240F8B50446002625464035287D62
:100A9000012808D001202875206881688907890FFE
:100AA00001290ED101E00220F8BD0168C90708D074
:100AB000A06D20210843A06501260020287530463E
:100AC000F8BDA16DFF220132914302221143A165BD
:100AD000816892071143816000F0A0FD07462068FD
:100AE0008068002812DA00F099FDC01B0A2809D995
:100AF000A06D0221884310210843A06500202875BD
:100B00000120F8BD206880680028ECDBA06D80081B
:100B10008000401CA065D0E770B50C4C206AFF2116
:100B200002310843206200F079FD0546206AC000CA
:100B300009D400F073FD401B032801D9012070BDCA
:100B4000206AC000F5D5002070BD00000000014003
:100B5000F8B50C4605464035297D01290DD0012107
:100B6000297501688A68520709D5816D20221143D1
:100B70008165002028750120F8BD0220F8BD194BC1
:100B80006268D8054710184E9A4215D08A6A2368C1
:100B90005B035B0B1A438A622168490305D5B16880
:100BA0000143B1600A20FFF783FD2068800315D55B
:100BB000B0683843B06011E08A6A23685B035B0B5E
:100BC0009A438A622168490302D5B1688143B160C2
:100BD0002068800302D5B068B843B0600020287553
:100BE000F8BD000001100000002701407047704769
:100BF0007047000070B50446002C06D0A06D254655
:100C000000264035002802D006E0012070BDE665D0
:100C10002E75204600F0D4F8A06DC00603D42068DD
:100C20008168490706D5A06D10210843A0652E757F
:100C3000012070BDA16DFF220132914302221143B8
:100C4000A16581685B4A8907890F012902D1016882
:100C5000C9072BD1032361699B07994205D05B42E9
:100C6000994202D05B00994209D101698900890843
:100C70000161206801696369194301610CE0016940
:100C800089008908016190680F2189048843906078
:100C900090686169084390602068C168182399438F
:100CA000C1602068C168A3691943C16090680121CF
:100CB0004906884390609068A16C4906084390609B
:100CC00020688168C90004D4816801221207114399
:100CD00081602068C168384A1140C160206A616A39
:100CE000022823D000200143A06AA26B40035200D7
:100CF00010430143206C0143606C80030143E06CAE
:100D0000C00301432068C2681143C160206B0146E3
:100D1000FF39C23905D0616B08432168CA681043A6
:100D2000C860E06A0121012802D00BE00420DAE764
:100D3000A06A002823D0A06D20221043A065E06D9A
:100D40000843E0656068012820D020680169C90770
:100D500003D0016949084900016120684169C90857
:100D6000C900416120684169E26911434161E6655A
:100D7000A06D80088000401CA065002070BD206828
:100D8000C26801231B041A43C260DBE720680269C2
:100D90000A4B1A40026120680269A36825691A4358
:100DA000E3682B431A430261206802690A43026127
:100DB000D3E70000002701401902FEFF03FCFF7F7C
:100DC000F0B585B0054614492868884222D11348F9
:100DD000416B4715394341632C200090032001905B
:100DE0000026029605206946000700F05BFB0D4CCB
:100DF0000B4820606660A660E66080202061676125
:100E00000001A0612020E0612662204600F0FAF98E
:100E10002C65A56205B0F0BD002401400010024021
:100E20000800024024040020F7B50446002520688D
:100E3000806840073FD426464036307D01280BD0DD
:100E400001273775E06C012803D02046FFF784FCAA
:100E50000546002D03D02FE0022003B0F0BDA06DA9
:100E600017490840FF2101310843A0650020E065D3
:100E70003075216D1348C862216D13480863216DD8
:100E80001248486321681C200860206841681022CD
:100E9000114341602068C1683943C1602168206DF9
:100EA0004031029B019A00F045FA206881680422D3
:100EB0001143816000E00225284603B0F0BD000028
:100EC000FEF1FFFF21060008A70600088D060008B6
:100ED000F8B5044626464036307D012808D0012763
:100EE00037752046FFF770FB0546280002D028E042
:100EF0000220F8BD2068C16849084900C160206D22
:100F000000F023F80546280003D0A06D40210843D7
:100F1000A06520684168102291434160002D05D0F2
:100F20002046FFF7DDFB002D05D00AE02046FFF745
:100F3000D7FB0546F7E7A06DFF2101318843384311
:100F4000A065002030752846F8BDF8B50446206835
:100F5000016849084900016000F060FB064620680E
:100F600000682546C00700272035002812D000F071
:100F700055FB811B7D20C000814207D9A06B202139
:100F80000843A0632F7103206871F8BD20680068D2
:100F9000C007ECD12F71012068710020F8BD00005E
:100FA000F8B5044690480268904920680B04904EBA
:100FB000904F884201D108211BE0B04201D180212D
:100FC00017E0B84202D10121C90212E08A498842E1
:100FD00002D10121C9030CE08849884201D1194698
:100FE00007E08749884202D10121C90501E00121BA
:100FF000C90625460A402035002A37D0016809076E
:1010000034D50168082291430160784920688842FC
:1010100001D108201BE0B04201D1802017E0B84286
:1010200002D10120C00212E07349884202D101209E
:10103000C0030CE07149884201D1184607E07049AD
:10104000884202D10120C00501E00120C0066649A6
:101050004860A06B01210843A06304206871002050
:101060002871616B002901D0204688475E480268DC
:101070005E4920680B15884201D104211BE0B04273
:1010800001D1402117E0B84201D1194613E05A4975
:10109000884202D1012189030DE05849884202D1DA
:1010A0000121890407E05649884202D101218905BE
:1010B00001E0012189060A4234D00168490731D58F
:1010C0000168890603D4026804218A430260474903
:1010D0002068884201D104201BE0B04201D14020A9
:1010E00017E0B84201D1184613E04349884202D1C3
:1010F000012080030DE04149884202D10120800493
:1011000007E03F49884202D10120800501E001202B
:1011100080063549486005206871216B002901D09F
:101120002046884730480268304920684B1588427D
:1011300001D102211BE0B04201D1202117E0B842C9
:1011400001D1194613E02C49884202D101214903FB
:101150000DE02A49884202D10121490407E02849CB
:10116000884202D10121490501E0012149060A42D4
:1011700038D00168890735D50168890603D401682C
:1011800002229143016019492068884201D102205E
:101190001BE0B04201D1202017E0B84201D118462F
:1011A00013E01549884202D1012040030DE01349A4
:1011B000884202D10120400407E01149884202D14F
:1011C0000120400501E00120400607494860A06B6E
:1011D000A0630120687100202871E16A002901D014
:1011E00020468847F8BD0000000002400800024089
:1011F0001C000240300002404400024058000240FF
:101200006C00024070B4002805D0024620325179AB
:10121000002903D004E070BC012070470021117147
:101220000221517101680C683A4B1C40C568836803
:1012300046692B43056935432B4385692B43C569B3
:101240002B43056A2B4323430B60334C0168334B1C
:10125000A14208D1996A090909019962996A40680D
:101260000143996250E02E4CA14209D1996AF024C1
:10127000A1439962996A406800010143996243E081
:10128000284CA1420AD1996A0F242402A1439962F1
:10129000996A406800020143996235E0224CA142FC
:1012A0000AD1996A0F242403A1439962996A40687C
:1012B00000030143996227E01C4CA1420AD1996ABC
:1012C0000F242404A1439962996A80880004014391
:1012D000996219E0164CA1420AD1996A0F2424059B
:1012E000A1439962996A80880005014399620BE0E5
:1012F000994209D1996A0F242406A1439962996AF7
:1013000000790006014399620120507170BC0020F1
:10131000704700000FC0FFFF08000240800002403D
:101320001C000240300002404400024058000240CD
:101330006C000240F8B50446204620300579012DA6
:101340001ED0012505710226467120680768AF434B
:1013500007602046FFF7F6FA206801683143016014
:101360002068016804221143016020680168082296
:101370001143016020680168294301600020F8BD25
:101380000220F8BD31B500F049F9044600F046F9F5
:101390000099001B8842F9D338BD0000034841681A
:1013A00001221143416000207047000000200240EC
:1013B000F8B505460E461446104F387C012807D074
:1013C000012038740E48FFF71BFB002802D012E002
:1013D0000220F8BD00207861022D04D0012D04D038
:1013E000002D04D004E0346002E0348000E034706A
:1013F0000348FFF705FB00213974F8BD60040020A5
:1014000050C3000005484168C90705D00449C160C0
:101410000449C1600020704701207047002002404D
:10142000EFCDAB890504030210B501281FD11420AC
:10143000FFF7A8FF124C0121204600F0E1F8002838
:1014400015D17D20C000FFF79DFF0121204600F04F
:10145000D7F800280BD10B4C607F002808D00A4831
:10146000C07BFFF701FA0020607701F0A5F910BDFD
:101470001520FFF7F9F90120607701F0A5F910BDFB
:10148000001C0050D80400209804002010B5044926
:101490004A69024202D04861FFF7C6FF10BD000052
:1014A00000040140F0B400220B68002B70D001242E
:1014B00094400B68A4462340002B6AD04C68022C51
:1014C00001D0122C0CD1D408A40027183D6A54076F
:1014D000E40E0F26A640B5430E69A6402E433E6299
:1014E0004C68012C05D0022C03D0112C01D0122CF9
:1014F00011D1856854000326A640B543CE68A640A6
:101500002E43866044686546AC430D79ED06ED0FC9
:10151000954025434560076854000325A540AF4327
:101520000E79B607B60FA6403E430660C668AE43C6
:101530008D68A5403543C5604C68E4004BD5294C07
:10154000656B0126354365639508274CAD002F195F
:10155000BD689407240F0F26A640B543052636071D
:10156000B04201D1002616E0204EB04201D1012642
:1015700011E01F4EB04201D102260CE01D4EB042D8
:1015800001D1032607E01C4EB04203D1052602E03C
:1015900026E020E00626A6402E43BE60174D2C68AC
:1015A0009C434E68F60300D51C432C606C689C433A
:1015B0004E68B60300D51C436C60AC689C434E6813
:1015C000F60200D51C43AC60EC689C434E68B60242
:1015D00000D51C43EC60521C0B68D34000D066E77A
:1015E000F0BC7047001002400000014000040050B1
:1015F00000080050000C0050001C00500004014086
:101600000069084201D00120704700207047002A7D
:1016100001D0816170478162704700000148006815
:10162000704700002000002002480168491C01604A
:10163000704700002000002010B5064801684022D5
:1016400011430160002000F007F800F017F80020B7
:1016500010BD00000020024010B5044600F008FA5A
:101660007D21C900FEF744FD00F0E2FC0022214686
:10167000501E00F023F8002010BD000010B50948EE
:10168000416B01221143416300221146501E00F0BC
:1016900015F801210022084600F010F8012000F0A2
:1016A00003F810BD00100240C106C90E0120884099
:1016B000014908607047000000E100E08207D30E96
:1016C000FF229A408907090E994000280BDA00078B
:1016D000000F0838830808489B001818C369934313
:1016E0000B43C3617047830804489B0018180368C4
:1016F00093430B430360704700ED00E000E400E01B
:10170000BFF34F8F04490348C860BFF34F8F00BF3A
:10171000FDE700000400FA0500ED00E00248016862
:101720004215114301607047007000400A4B1A686F
:101730009208920002431A600848026904231A437F
:101740000261012906D040BF20BF20BF0169994333
:101750000161704730BFF9E70070004000ED00E024
:101760007047000010B5054C6069C00304D5FFF751
:10177000F7FF01200004606110BD0000000401407B
:10178000F8B504462078524D800666D5514F3A6828
:101790000321090560690A4001408A4208D080039C
:1017A000800F032804D13868800301D50120F8BDDB
:1017B000B86B012109070843B86347480068091559
:1017C000084345490860FFF729FF0646424800687C
:1017D000C0050AD4FFF722FF801B642801D903202B
:1017E000F8BD3D480068C005F4D528690321090407
:1017F000626908400A4090422FD0286988432A69CC
:101800000121C9040A432A612A698A432A6128619D
:10181000800510D5FFF702FF0646286980050AD427
:10182000FFF7FCFE811B2D48814201D90320F8BD42
:1018300028698005F4D560698103890F03293ED0AA
:1018400038680321090588433860296903200004AA
:10185000626981430240114329612078C00705D0A5
:10186000E8686168800880000843E86020788007A5
:1018700005D5E8680C218843A1680843E860207812
:10188000400706D5E868032189028843E1680843D8
:10189000E8602078000706D5E8680321090388433B
:1018A00021690843E8602078000606D5E86803212E
:1018B00089048843A1690843E8600020F8BD3968BD
:1018C000032212059143104001433960BDE7000037
:1018D00040100240001002400070004088130000D9
:1018E000F8B504460E465F480068C007C00FB04216
:1018F0000CD25C4801684908490031430160006826
:10190000C007C00FB04201D00120F8BD2078564F6B
:10191000800705D5F868F0218843A1680843F8607E
:101920002078C00772D06068022808D000280BD049
:1019300003280ED03968490710D40120F8BD396852
:1019400089030BD40120F8BD3968890506D401202C
:10195000F8BD3968890101D40120F8BDF96889080A
:1019600089000143F960FFF759FE054661680229C5
:1019700010D0032921D0002932D0F9680907890F36
:10198000012943D0FFF74AFE411B3848814238D92C
:101990000320F8BDF9680907890F022936D0FFF73F
:1019A0003DFE411B3148814201D90320F8BDF86852
:1019B0000007800F0228F2D128E0F9680907890F93
:1019C000032923D0FFF72AFE411B2848814201D971
:1019D0000320F8BDF8680007800F0328F2D115E056
:1019E000F9680907890F11D0FFF718FE411B1F483E
:1019F000814201D90320F8BDF8680007800FF3D1B8
:101A000004E0F8680007800F0128BBD11548016881
:101A1000C907C90FB1420BD30168490849003143D6
:101A200001600068C007C00FB04201D00120F8BDBE
:101A30002078400706D5F868072109028843E16845
:101A40000843F8602078000707D5F8680721C90225
:101A500088432169C9000843F8600020FFF7FCFDB6
:101A60000020F8BD00200240001002408813000052
:101A700010B500F031F80549C968054A0906090F93
:101A8000515CC8400349086010BD000000100240CE
:101A9000E24100082400002010B5FFF7E9FF0449E7
:101AA000C968044A4905490F515CC84010BD00008F
:101AB00000100240E241000810B5FFF7D9FF0449C9
:101AC000C968044A8904490F515CC84010BD000030
:101AD00000100240E241000810B5214B5868000494
:101AE000420FD9680C2001401E4808D0042909D0B3
:101AF00008290ED00C290ED0521C904010BD521C4B
:101B0000904010BD1868C00601D5174810BD174891
:101B100010BD174810BDD8680F2189040840D96846
:101B2000032292051140820C1248805C890D491CE9
:101B3000DA68012424042240002A04D00C4A5043CD
:101B4000FEF7D6FA10BD1A68D20604D5064A5043ED
:101B5000FEF7CEFA10BD054A5043FEF7C9FA10BD94
:101B6000001002400080000000093D000024F40045
:101B700000127A0002420008F0B583B004462078D3
:101B8000C0075ED0FC4EF0680007800F022807D027
:101B9000F0680007800F03280BD1F068C00308D558
:101BA000306880034DD5606800284AD1012003B019
:101BB000F0BD012160680904884203D13068084300
:101BC000306018E0052301221B049204984209D1D9
:101BD00030688843306030681043306030680843B4
:101BE000306008E030688843306030680840019019
:101BF0003068904330606068002811D0FFF70EFD18
:101C00000546306880031CD4FFF708FD401B64289C
:101C100002D9032003B0F0BD30688003F4D510E092
:101C2000FFF7FCFC0546306880030AD5FFF7F6FC99
:101C3000401B642802D9032003B0F0BD3068800344
:101C4000F4D42078800753D5CB4EF0681F270007C7
:101C5000800F3F02012807D0F0680007800F03289B
:101C600012D1F068C0030FD43068400705D5E06892
:101C7000012802D0012003B0F0BD70682169B8438B
:101C800009020843706033E0E068092100281BD096
:101C900032688A4302433260FFF7C0FC0546306871
:101CA00040070AD4FFF7BAFC401B022802D90320E0
:101CB00003B0F0BD30684007F4D570682169B843BF
:101CC00009020843706013E0306888433060FFF712
:101CD000A5FC0546306840070AD5FFF79FFC401B6E
:101CE000022802D9032003B0F0BD30684007F4D4C5
:101CF0002078C00659D5A04EF068A04F0007800F8D
:101D000014D0A06900283AD03168B0150143316081
:101D1000FFF784FC05463068800523D4FFF77EFC7E
:101D2000401B02281BD9032003B0F0BD306880059A
:101D300002D5A06900280FD07068216AB843084313
:101D400070607068217F0002000A09060843706015
:101D50000020FFF781FC28E0012003B0F0BD3068CF
:101D60008005DBD57068216AB843084370607068ED
:101D7000217F0002000A09060843706015E03168FF
:101D8000FF20013081433160FFF748FC0546306891
:101D900080050AD5FFF742FC401B022802D9032028
:101DA00003B0F0BD30688005F4D42078744D00078E
:101DB0002DD56069002815D02869012108432861C4
:101DC000FFF72CFC06462869800720D4FFF726FC85
:101DD000801B022802D9032003B0F0BD28698007C8
:101DE000F4D514E02869400840002861FFF716FC8C
:101DF0000646286980070AD5FFF710FC801B0228D9
:101E000002D9032003B0F0BD28698007F4D42078FC
:101E1000400770D5002600275748806BC00005D4C6
:101E20005548826B01040A438263012655480068C5
:101E3000C0051BD453480068FF21013108435149B4
:101E400008600127FFF7EAFB02904E480068C005D2
:101E50000CD4FFF7E3FB0299401A642802D903204F
:101E600003B0F0BD47480068C005F2D5A068C11FA7
:101E7000F93912D001229202002814D0052109025A
:101E8000884219D129699010814329612969114338
:101E9000296129690143296116E02869FF2101317F
:101EA0000843286110E02869FF2101318843286137
:101EB00028699043286107E02969FF2001308143A8
:101EC0002961286990432861A068002814D0FFF791
:101ED000A5FB02902869800521D4FFF79FFB02999A
:101EE000411A2948814202D9032003B0F0BD286974
:101EF0008005F2D513E020E0FFF790FB02902869FF
:101F000080050CD5FFF78AFB0299411A1E488142D1
:101F100002D9032003B0F0BD28698005F2D4012F57
:101F200004D11848026881158A430260012E04D149
:101F30001148826B01048A438263606A00285AD088
:101F40000D4DE9680907890F032956D001273F067F
:101F500002281BD02868B8432860FFF75FFB0446BF
:101F60002868800147D5FFF759FB001B02283FD99D
:101F7000032003B0F0BD00000010024000E00000AC
:101F80004010024000700040881300002868B843E9
:101F90002860FFF743FB06462868800109D5FFF754
:101FA0003DFB801B022801D90320E2E7286880015D
:101FB000F5D4216BE06AEA680843A16AFD231B049B
:101FC0009A4311430843E860286838432860FFF7C4
:101FD00025FB0446286880010DD4FFF71FFB001B7A
:101FE000022801D90320C4E728688001F5D502E062
:101FF00028688001B7D40020BBE70120B9E70000C2
:1020000002480169022211430161704700E000E0CB
:1020100004220549042803D00869904308617047E9
:10202000086910430861704700E000E07047000055
:1020300010B40B49401E884202D910BC01207047E1
:102040000849486108480723C2691202120A4C0471
:102050002243C261002088610B6110BC7047000000
:10206000FFFFFF0000E000E004ED00E010B5FFF727
:10207000DDFF10BD024801690222914301617047F2
:1020800000E000E070B402462032137D012B1CD02A
:10209000012414750223537503685D687026B543E7
:1020A0005D6003685D680E6835435D6003689D6828
:1020B0008026B5439D600068836849680B43836050
:1020C00054750020107570BC704770BC02207047BA
:1020D00070B50446002C05D025462035687D0028C3
:1020E00002D006E0012070BD00202875204600F0D7
:1020F0000BF802206875211D206800F0B1FF012057
:102100006875002070BD000000B585B000680F49FB
:10211000884218D10E48416B0422114341630220CA
:1021200000900190002002900390052004906946E1
:102130000007FFF7B7F9002211461420FFF7BEFA97
:102140001420FFF7B1FA05B000BD000000080140FF
:1021500000100240F8B5044625462035287D0128A8
:1021600017D001272F7502206875206882687726AE
:10217000B243FF231B029A4382600868502838D07C
:102180000EDC20285DD006DC002850D0102861D15C
:1021900052E00220F8BD302858D040285AD13CE007
:1021A000602830D0702818D001221203801A0ED077
:1021B00090424FD1CB684A688968206800F086FF5A
:1021C00020688168012292031143816042E0206807
:1021D0008168C908C90081603CE0CB684A688968A9
:1021E000206800F073FF20688168B143314381604B
:1021F00030E0CA684968206800F07CFF5021206800
:1022000000F070FF26E0CA684968206800F084FF8B
:102210006021206800F066FF1CE0CA6849682068F9
:1022200000F068FF4021206800F05CFF12E0002110
:10223000206800F057FF0DE01021206800F052FFE9
:1022400008E02021206800F04DFF03E030212068E5
:1022500000F048FF6F7500202875F8BD704710B575
:1022600004460122206800F025FF20680168012251
:1022700011430160002010BD70B50446206801695B
:102280000025C9438907002916DBC168C9438907AE
:1022900012D4E91E01610120207520688069800741
:1022A00003D02046FFF7DAFF05E0204600F07BF878
:1022B000204600F079F8257520680169C94349076F
:1022C00018D4C168C943490714D40421C943016122
:1022D00002202075206880698005800F03D0204689
:1022E000FFF7BCFF05E0204600F05DF8204600F057
:1022F0005BF8257520680169C943090717D4C168CF
:10230000C943090713D40821C9430161042020757A
:102310002068C069800703D02046FFF79FFF05E0D3
:10232000204600F040F8204600F03EF82575206871
:102330000169C943C90618D4C168C943C90614D480
:102340001021C9430161082020752068C0698005FB
:10235000800F03D02046FFF781FF05E0204600F004
:1023600022F8204600F020F8257520680169C9434D
:10237000C90708D1C168C943C90704D1891E0161D1
:10238000204600F012F820680169C943490609D4C3
:10239000C168C943490605D44021C94301612046AB
:1023A00000F004F870BD7047704770477047704781
:1023B000704770B504462068C1692546C9070126E3
:1023C0006035002907D00168C90504D50662E06EB2
:1023D0003043E0666E722068C16904228B070221D7
:1023E000002B07DA8368DB0704D00162E06E10433C
:1023F000E0666E722068C3695B0707D58368DB07F8
:1024000004D00262E06E0843E0666E722068C16923
:10241000090708D58168C90705D008210162E06E67
:102420000843E0666E72E06E002802D02046FFF797
:10243000BFFF2068C169C90209D58168490206D574
:102440000121090501626E722046FFF7B0FF206886
:10245000C169890605D50068800602D5204600F0CE
:1024600047FF2068C169090605D50068000602D546
:10247000204601F0E9F82068C169490605D50068E1
:10248000400602D5204600F01FFF70BD70B504461F
:10249000002C05D025466035687A002802D006E079
:1024A000012070BD00202872204600F025F802208F
:1024B000687220680168490849000160204600F000
:1024C00063FF606A002802D0204600F039FE2068D1
:1024D00041680922D20291434160206881682A2222
:1024E0009143816020680168012211430160204608
:1024F00000F08CFE70BD000030B585B005461B496C
:102500002868884230D11A48816B01229204114315
:10251000816303208002009002200190012002903C
:10252000032003900420049069461248FEF7BAFF86
:10253000124C11482060052060600020A060E0601F
:10254000802121616061A0612021E161206220463B
:10255000FEF758FE6C66A562002201211D20FFF7E0
:10256000ADF81D20FFF7A0F805B030BD00480040D1
:10257000001002400004005030000240F80000202B
:10258000F7B50446134625466035687A012805D01C
:10259000687A122802D0022003B0F0BD019A002A06
:1025A00027D0002B25D0287A012825D00120287299
:1025B0006265582003530026E666687A12281ED00A
:1025C00022206872616E0F48C862616E0E4808630F
:1025D000616E0E4848632168606E2431FEF7AAFEE2
:1025E000206881684022114381602E72002003B070
:1025F000F0BD012003B0F0BD022003B0F0BD3220D9
:102600006872DFE787320008BF32000865320008D1
:1026100070477047FFB581B005460C462E466036C0
:10262000707A012805D0707A222802D0022005B0E5
:10263000F0BD002C1FD0002A1DD0307A01281DD0FB
:10264000012030720020E866707A222819D012200A
:1026500070722F4640373A827A82788A401E78829A
:10266000002280212846049B01F026F800280BD088
:10267000032005B0F0BD012005B0F0BD022005B07B
:10268000F0BD32207072E4E70120A96800038142A6
:1026900002D12869002811D0296820788862641C3A
:1026A000788A0028D9D1002240212846049B01F0D5
:1026B00003F8002809D0032005B0F0BD2088296860
:1026C000C005C00D8862A41CEAE7707A322805D0E4
:1026D000012070720020307205B0F0BD22207072AF
:1026E000F8E7704770B50D480D4C017C2180407CA7
:1026F00060800C4800F0A4FB06020B4800F0A0FB31
:1027000005463543094800F09BFB0602084800F0E7
:1027100097FB01463143A580E18070BD98040020FD
:102720007C010020080008080700080806000808C7
:1027300005000808064907480A780280064AD27B45
:102740004280498F81800549C988C1807047000057
:10275000780400206C01002098040020B8040020B8
:1027600010B512480068C169C906CA0F0168102374
:102770001940002A15D0002913D003620C4A1068B2
:10278000016849084900016010684368FF21013170
:10279000084CCB1A23704160106801680122114374
:1027A00001600248FFF705FE10BD00008800002010
:1027B000F80000200200002010B5052000220121B1
:1027C0000007FEF724FF10BD10B5012205201146B9
:1027D0000007FEF71CFF10BD00B583B01E481D4961
:1027E000016000214160032292074261816106225B
:1027F000C2610122026241628162C16241638163FE
:102800000422C263016441648164C164FEF7F2F989
:1028100012480090C013019069460F48FEF798F9DE
:102820000F48009069460C48FEF792F90D48009059
:1028300069460948FEF78CF90B480090694606483E
:10284000FEF786F90948009069460348FEF780F9CB
:1028500003B000BD0024014028000020040000084F
:102860000800000C2000001400000448000002448E
:1028700008B50C48016B012211430163006B104045
:102880000090002211460920FEF718FF0920FEF7EC
:102890000BFF002211460A20FEF710FF0A20FEF768
:1028A00003FF08BD00100240F0B587B05148C26A6E
:1028B00004210A43C262C26A0A400192C16A8027A7
:1028C0003943C162C16A39400191C16A0125294376
:1028D000C162C16A29400191C16A02263143C162C5
:1028E000C06A30400190032464030022214642481C
:1028F000FEF78DFE0520002240490007FEF787FE07
:1029000000223F493F48FEF782FE029403950024CF
:102910000494059402A93848FEF7C4FDE803029028
:1029200039480390049402A93348FEF7BBFD029591
:1029300036480390049402A93548FEF7B3FD029689
:1029400003200390049402A93148FEF7ABFD2B4805
:102950000290039504940594052002A90007FEF750
:10296000A1FD1020029003940494052002A9000701
:10297000FEF798FD27480290032003900494052059
:1029800002A90007FEF78EFD1B2002900320039092
:10299000049402A91B48FEF785FD1F480290039589
:1029A0000494059402A91748FEF77CFD20200290AC
:1029B00003950494059602A91248FEF773FD029749
:1029C00012480390049402A90E48FEF76BFD002202
:1029D00003210520FEF772FE0520FEF765FE0022AA
:1029E00003210720FEF76AFE0720FEF75DFE07B011
:1029F000F0BD00000010024000080050011F000060
:102A000064F30000000400500000111000002110C9
:102A1000001C0050C080000044F3000010B50A48BC
:102A2000084901604B214902416000218160C16079
:102A300001610C224261816101624162FFF726FD62
:102A400010BD0000004800408800002010B586B08E
:102A50000F480E4901600024446084600D49C16044
:102A60000461FFF735FB01204003029003940494B6
:102A70000F20059002A90648FFF76CFB0094019413
:102A800069460348FFF7FEFA06B010BD0008014092
:102A90003401002060EA0000F8B50F460646012127
:102AA000002000F041F90221002000F03DF96420EF
:102AB000FEF768FC05252D07884C012E0AD0002E54
:102AC0007DD1002240218648FEF7A1FD207C002810
:102AD00076D0B4E0002240218148FEF798FD207CAA
:102AE000002811D000260AE0012220217C48FEF7B0
:102AF0008EFD002220217A48FEF789FD761C207C7D
:102B000078494843B042EFD8754E01221103304650
:102B1000FEF77DFD002204213046FEF778FD0122FC
:102B200040213046FEF773FD012F06D0022F0CD056
:102B3000032F12D0042F2AD11CE001210022090307
:102B40002846FEF764FD0122ABE001210022890244
:102B50002846FEF75CFD0122ACE0FF210022013196
:102B60002846FEF754FD0122D1033046FEF74FFD03
:102B70000120B1E00121002289033046FEF747FD24
:102B8000012251033046FEF742FD012080E0207C07
:102B9000002802D06420FEF7F5FB607C002803D0FB
:102BA00064214843FEF7EEFB012424030022214662
:102BB0003046FEF72CFD00220421304601E027E0DC
:102BC00042E0FEF724FD012F0DD0022F14D0032F79
:102BD0001FD0042F1CD10022A1003046FEF717FDA4
:102BE000002261001EE0002221462846FEF70FFD6C
:102BF00000220121C90208E00121002289022846A1
:102C0000FEF705FD0022012149022846FEF7FFFCE0
:102C1000F8BDFF21002201312846FEF7F8FC002212
:102C20000121C9033046F1E7012220212C48FEF79B
:102C3000EEFC002220212A48FEF7E9FC761C207CCD
:102C400028494843B042EFD8254E0121002209030C
:102C50003046FEF7DCFC012204213046FEF7D7FCAB
:102C6000012240213046FEF7D2FC012F13D0022F63
:102C70001AD0032F24D0042F89D10122910330468A
:102C8000FEF7C5FC0022F9023046FEF7C0FC00202A
:102C9000154908707BE7012211032846FEF7B7FCAF
:102CA00000220121C90207E0012291022846FEF715
:102CB000AEFC0022012149022846FEF7A8FC66E787
:102CC000012211022846FEF7A2FC01210022C903BD
:102CD0003046FEF79CFC00200449DAE79804002007
:102CE0000004005010270000010000200000002018
:102CF0000278120240781043094A0A4B012905D094
:102D0000022902D1C82808D8507470470F2801D86A
:102D100010747047107C18807047507C5880704742
:102D2000980400207C010020F8B5052501272D0717
:102D30003F033F4C0E4601281CD0002843D10022FF
:102D400039462046FEF763FC002204212046FEF7A8
:102D50005EFC012E4BD0022E52D0032E5DD0042EED
:102D600031D1002221012046FEF751FC0022F10260
:102D700020464FE0012239462046FEF748FC00225B
:102D800004212046FEF743FC012E06D0022E0CD073
:102D9000032E19D0042E13D11FE0002239462846F5
:102DA000FEF735FC0122D10207E001210022890251
:102DB0002846FEF72CFC012251022846FEF727FC8C
:102DC0001C48FEF7DFFAF8BDFF210022013128463A
:102DD000FEF71DFC0122D10307E001210022890337
:102DE0002046FEF714FC012251032046E6E70022AC
:102DF00039462846FEF70BFC00220121C90208E0F3
:102E00000121002289022846FEF701FC002201214F
:102E100049022846FEF7FBFBF8BDFF2100220131E5
:102E20002846FEF7F4FB00220121C903A0E70000B9
:102E300000040050B80B000010B5FEF793FC10BD65
:102E40000078704710B51C480178F72900D9002197
:102E50001A4801701849491C09780F2900D9002126
:102E6000164A203211741449891C0978C82900D9DE
:102E7000002151741049114B091D0978603399776D
:102E80000D49C91C0978152900D90021D1730121E8
:102E900001740B490A6942604A698260496AC160EB
:102EA000064808A21E21113000F068FD03480021E9
:102EB0008030017010BD0000000008087804002078
:102EC0004000F81F4E6F726D616C205274750000E7
:102ED00070B50E46044601F049F900283ED120782D
:102EE000FF283BD16078FF2838D1A178002935D060
:102EF000F72933D8E2780F2A30D82079C8282DD87E
:102F0000C2422BD06079152828D8082E26D1144823
:102F1000134D0170E0782035287420796874607949
:102F2000E873104800F01CFD0E48297C401C00F09E
:102F300017FD0C48697C801C00F012FD0948E97BF4
:102F4000C01C00F00DFD31462046FDF77DFCFDF76D
:102F5000DBFC0548FEF716FAFEF7D2FB70BD000059
:102F60007804002000000808B80B000010B5FEF738
:102F70005BFBFFF77BF810BD10B59AB01D48816B65
:102F80000204114381631C4801680322D202914369
:102F9000C2148918016010200D90012013900024A4
:102FA000149405204003159016940DA8FEF7E4FD37
:102FB0000F20089009940A940B940C94002108A8FF
:102FC000FEF78EFC04200190049401A8FEF7D8FBC4
:102FD000FEF74EFD7D21C900FDF78AF8FFF728F8BE
:102FE0000420FFF715F800221146501EFEF766FB7D
:102FF0001AB010BD00100240007000401048016877
:10300000821511430160C1680E4A1140C160016818
:103010000D4A1140016081684908490081600168DA
:103020000122920491430160C168FD221204914380
:10303000C160002101610549C0038860704700003C
:10304000001002400C40FF88F6FFF6FE00ED00E0A5
:1030500010B50248FFF710F910BD00003401002040
:10306000F0B402680124A407104D114EA04203D011
:10307000A84201D0B04204D170271346BB434A682E
:103080001A43A04203D0A84201D0B04204D1032386
:103090001B029A43CB681A4302608A68C2620968BD
:1030A000816201214161F0BC7047000000080140CD
:1030B0000014014010B401238B40046A9C43046255
:1030C000036A8A401343036210BC704730B48468BB
:1030D000FF252D02AC431B0213430B4323438360A4
:1030E00030BC7047826870239A430A4307210A4321
:1030F0008260704730B4036A046A64086400046242
:103100008469F025AC43120122430A24A3430B43F4
:103110008261036230BC704730B4036A1024A34359
:1031200003628369046A0F252D03AB4312031A431C
:10313000A0239C43090121438261016230BC704796
:1031400010B4818CC90707D001684A6801235B0469
:103150009A43836A1A434A60818C890707D50168BC
:103160004A6801231B049A43C36A1A434A60818C4C
:10317000490707D501684A6801239B049A43036BFA
:103180001A434A60818C090707D501684A68012300
:10319000DB039A43436B1A434A60818CC90607D507
:1031A00001688A6801231B039A43836B1A438A6070
:1031B000818C890607D501688A6801235B039A43DD
:1031C000C36B1A438A60818C490612D501684B682B
:1031D00001221205046C934323434B60016C91421E
:1031E00007D101684A6803235B059A43436C1A437D
:1031F0004A60818C090607D501684A680123DB040F
:10320000806C9A4302434A6010BC704770B5044614
:1032100020680068124D00070AD501212B460022C4
:103220004905204600F048FA002801D0032070BD6F
:103230002068006840070AD501212B460022890535
:10324000204600F039FA002801D0032070BD00218B
:10325000204660300172E16601214172002070BD9C
:10326000F055000010B5806A0022014640314A83C3
:103270004A82012269210A54C16E10221143C1669B
:10328000FFF796F810BD10B50146886A096809680D
:1032900089060ED400225A210A5201688A68402306
:1032A0009A438A60014660314A7A322A04D0012268
:1032B0004A72FFF7ADF910BD12224A72F9E710B554
:1032C000806AFFF7A6F910BD10B501680A684023AF
:1032D0009A430A60014660314A7A322A05D00122B7
:1032E0004A72FFF7FEF9002010BD22224A72F8E769
:1032F00070B502464032938B014660314C7A222CE5
:1033000004D04C7A322C01D0022070BD0125846893
:103310002D03AC4202D10469002C0ED00468646A0B
:103320001C40436D5D1C45651C70538B5B1E1B046C
:103330001B0C53830AD0002070BD446D05686D6A74
:103340001D402580436D9B1C4365EEE70268D369F1
:103350009B06FCD413682024A34313604A7A322AC4
:103360000FD002681368E400A343136002689368F7
:103370005B085B00936001224A72FFF749F9002065
:1033800070BD12224A72F8E7F8B504460020002109
:10339000A04B22682669A568E769354366693E4304
:1033A000354316689C4F3E402E4316602268556890
:1033B00003263603B543E66835435560A2692568A0
:1033C0009D4201D0266A3243AE680B273F02BE43BE
:1033D0001643AE60914E2568914AB54212D1D2682B
:1033E0009207920F06D0012A08D0022A04D0032A9D
:1033F0002CD105E0012029E0022027E0042025E06F
:10340000082023E0874EB54210D1D2680C26324006
:103410001CD0042A06D0082A02D00C2A16D103E0B8
:10342000022013E0042011E008200FE09D420DD19E
:10343000D2680326B602324008D00126B602921B9B
:103440001ED0921B1AD0B24200D10820764A9D426B
:103450005FD1002816D0022829D0042844D008289B
:103460000BD16068FCF79CFF02460B4600206F49B9
:10347000FCF700FFFCF7B6FFE860F8BD0220E5E7C7
:103480000420E3E76068FCF78BFF05460E46FEF775
:1034900003FBFCF785FF0822FCF764FF2A4633464E
:1034A000FCF7E8FEFCF79EFF2168C860F8BD1068D5
:1034B000C0060CD56068FCF773FF02460B4600207F
:1034C0005B49FCF7D7FEFCF78DFFE860F8BD60684C
:1034D000FCF766FF02460B4600205649FCF7CAFE81
:1034E000FCF780FFE860F8BD6068FCF759FF05460F
:1034F0000E46FEF7F1FAFCF753FF0822FCF732FF05
:103500002A463346FCF7B6FEFCF76CFF2168C8601C
:10351000F8BD0123E669DB039E4240D1092836D27B
:1035200003007B441B79DB189F44040C14312331C6
:1035300031312B00FEF7B0FA40006168FCF7D8FD8E
:1035400081B224E0FEF7B8FA40006168FCF7D0FDD4
:1035500081B21CE01068C00605D537486168FCF7E9
:10356000C7FD81B213E035486168FCF7C1FD81B247
:103570000DE0FEF7B1FA40006168FCF7B9FD81B2D9
:1035800005E0012000046168FCF7B2FD81B20A0980
:1035900012010807400F10432168C860F8BD0928D0
:1035A000FCD201007944097949188F44050D1504AE
:1035B000240404042C00F1E7FEF76EFA6168FCF7BE
:1035C00097FD2168C860F8BDFEF776FA6168FCF7E0
:1035D0008FFD2168C860F8BD1068C00605D5184881
:1035E0006168FCF785FDE860F8BD16486168FCF786
:1035F0007FFDE860F8BDFEF76FFA6168FCF778FDC3
:103600002168C860F8BD18466168FCF771FDE86084
:10361000F8BD000000480040F369FFEF00380140AA
:103620004010024000440040001002400000604191
:103630008084CE418084EE4100127A000048E80187
:1036400000093D000024F400014660314A7A122A44
:1036500004D0497A322901D0022070470146403116
:103660004A8A002A12D0012382681B039A4202D19F
:103670000269002A16D0C26C531CC3640068127819
:103680008262488A401E48820020704701680A68AA
:1036900080239A430A600068016840221143016058
:1036A00000207047C26C03681288D205D20D9A625E
:1036B000C26C921CC264E4E7F8B504460E46174695
:1036C0001D46FDF7ABFF00903946274660370029BD
:1036D00005D02068C169304688432FD058E0206863
:1036E000C1693046884353D0681C21D0002D05D0D5
:1036F000FDF794FF0099401AA84219D92068016883
:10370000802291430160206801682022914301607A
:1037100020680168D20091430160206881684908EF
:103720004900816001207872002038720320F8BDC2
:103730002068C16930468843D6D129E0681C22D070
:10374000002D05D0FDF76AFF0099401AA8421AD94A
:103750002068026880218A43026020680268202174
:103760008A43026020680168FF22013291430160B0
:103770002068816849084900816001207872002032
:1037800038720320F8BD2068C16930468843D5D01F
:103790000020F8BD10B50949074A0A6048600020BA
:1037A0008860C860086188610C2208624A614862CA
:1037B0000846FEF76BFE10BD004800408800002060
:1037C000054A06491068030CCB8088805068020CBB
:1037D0004A81088170470000100000207C01002011
:1037E00010B50520002410210007FDF709FF011E78
:1037F000044803D000214175204610BD01214175C8
:103800000824F9E798040020F8B501225503294659
:103810004748FDF7FCFE01210846FFF785FA022123
:103820000120FFF781FA062242494348FDF7FCFADE
:10383000FF2491342046FDF7A5FD3F48FDF748FBE6
:1038400006223C493C48FDF7EFFA2046FDF79AFD79
:10385000384CE068FCF79CFD06463848008BFCF7C6
:1038600097FD3749FCF77EFC3146FCF7B8FC35493B
:103870000646C860A068FCF78BFD3146FCF772FC79
:1038800031490090FCF76EFC0121FCF7E6FC2F4962
:10389000FCF7A5FCFCF792FD2D4FB8802068FCF7E3
:1038A00077FD3146FCF75EFC2749FCF75BFC2949B4
:1038B000FCF758FC2849FCF792FC2449FCF78FFCE4
:1038C000FCF77CFDF8806068FCF762FD3146FCF790
:1038D00049FC1D49FCF746FC1E49FCF743FC1E4908
:1038E000FCF77DFC1949FCF77AFCFCF767FD388191
:1038F00001210098FCF7B1FC1449FCF770FCFCF7BF
:103900005DFD16494887C820FDF73CFD0022294689
:103910000748FDF77CFE0848FDF7DAFA0121002090
:10392000FFF702FA02210020FFF7FEF9F8BD0000C0
:10393000000800508C020020280000206000F81FC2
:1039400000004040000000200000484500F07F4596
:103950006C0100209A9921413333534078040020B0
:1039600070B50C460546FDF74DFD22462946002060
:10397000FDF71EFDFDF712FD70BD00001CB51346DE
:10398000491E01910090044A6946184600F02CF83F
:10399000009A002111701CBD073A00082021020C7A
:1039A00001D010211046020A01D010460839020940
:1039B00001D01046091F820801D01046891E420816
:1039C00001D0881E7047081A704702E008C8121F0D
:1039D00008C1002AFAD170477047002001E001C1F8
:1039E000121F002AFBD17047F8B516460F46044651
:1039F000002503E03946B047641C6D1C2078002880
:103A0000F8D12846F8BD4A68002A06D00A68531C37
:103A10000B6010704868401E48607047F3B581B075
:103A200005462846029900F0A1FB002843D10298E0
:103A3000082840D1EB4829780078814233D1697851
:103A4000002930D0E84F387068787870A878E97825
:103A500000020843009028790402687904436878DA
:103A6000E2490226012828D0022878D00322032820
:103A700071D0042870D00123DD4905286DD00628B7
:103A80006CD080307870BB700321384600F06EFB3C
:103A9000F870000A387105213846FCF7D5FE284633
:103AA0000299FCF754FBD348407F012803D12846F4
:103AB0000299FFF70DFA03B0F0BD0023601E8842A3
:103AC00039D82246CC48009900F098F900280FD048
:103AD000687880307870BE700321C34800F046FBE0
:103AE000F870000A38710521BF48FCF7ADFED6E733
:103AF000641EE017400F00194005040E601C0146CB
:103B0000B8700020002906DDBB4A125D3B18DA7050
:103B1000401C8842FADB201DC1B2B34800F026FBEE
:103B2000014638190171090A4171A41DE1B2AE487C
:103B3000FCF78AFEB3E781207870BE700321AA48A3
:103B400000F014FBF870000A38710521A648FCF754
:103B50007BFEA4E703E04EE09AE0E5E021E1601E91
:103B6000884239D82246A448009900F097F90028E5
:103B70000FD0687880307870BE7003219A4800F0CA
:103B8000F5FAF870000A387105219748FCF75CFED9
:103B900085E7641EE017400F00194005040E601C05
:103BA0000146B8700020002906DD934A125D3B18DB
:103BB000DA70401C8842FADB201DC1B28A4800F04E
:103BC000D5FA014638190171090A4171A41DE1B203
:103BD0008548FCF739FE62E782207870BE700321C9
:103BE000814800F0C3FAF870000A387105217E4858
:103BF000FCF72AFE53E7601E7C283AD800232246B1
:103C00007D48009900F07AF900280FD0687880305C
:103C10007870BE700321744800F0A8FAF870000AAA
:103C2000387105217048FCF70FFE38E76E486600D2
:103C300086700020002C0BDD6F4F41006A4A7B5CD0
:103C40008A18D370C91949781171401CA042F4DB5D
:103C5000F01CC1B2644800F089FA0146624830188D
:103C6000C170090A0171761DF1B25F48FCF7ECFDE5
:103C700015E783207870BA7003215B4800F076FA6C
:103C8000F870000A387105215748FCF7DDFD06E79A
:103C9000601E7C2839D822465748009900F078F9F0
:103CA00000280FD0687880307870BE7003214E48AD
:103CB00000F05CFAF870000A387105214A48FCF7F8
:103CC000C3FDECE64848660086700020002C0BDD42
:103CD000494F4100444A7B5C8A18D370C91949781E
:103CE0001171401CA042F4DBF01CC1B23E4800F050
:103CF0003DFA01463C483018C170090A0171761D31
:103D0000F1B23948FCF7A0FDC9E684207870BA709A
:103D10000321354800F02AFAF870000A38710521AD
:103D20003148FCF791FDBAE601208446002C03D00F
:103D3000FF200002844225D1002C18D00B7063466E
:103D400001222B48009900F059F8002812D0687819
:103D500080307870BE700321234800F007FAF870B5
:103D6000000A387105212048FCF76EFD97E6002017
:103D70000870E4E70F20FDF705FB08212846FCF753
:103D800063FD8CE685207870BA700321164800F038
:103D9000EDF9F870000A387105211348FCF754FD5D
:103DA0007DE60123200A08704C700122104800991A
:103DB00000F0A4F800280FD0687880307870BE70CA
:103DC0000321094800F0D2F9F870000A3871052182
:103DD0000548FCF739FD62E608212846FCF734FD6A
:103DE0005DE600007804002024030020CF070000D7
:103DF00018000020D8040020A4020020FFB581B0E4
:103E000005460F4616460020009034B2FEF7DCFC53
:103E100038B2002839DBB919102936D8064604987B
:103E2000002802D0012832D114E0002C2FDD082C0C
:103E300001DD082000E02046C2B2B1B2164800F011
:103E4000ADF928706D1C083C24B2083636B2002C3F
:103E5000EDDC1CE0002C1ADD032F01D0022F03D172
:103E60002878791CFEF718FE2B786D1C082C01DDD4
:103E7000082000E02046C2B2B1B2074800F09CF929
:103E8000083C24B2002CE7DC01E001200090FEF7A2
:103E900093FC009805B0F0BD08000020F8B5054679
:103EA0000E461746002000903CB2FFF799FC1249DD
:103EB0000870FEF789FC30B2002817DBF0191028D3
:103EC00014D8002C14DD082C01DD082000E0204669
:103ED000C2B23146084800F061F928706D1C083CF8
:103EE00024B20836B6B2002CEDDC01E001200090CF
:103EF000FEF762FC0098F8BD0A000020FFB581B013
:103F000006460F46144600200090FEF75DFCFFF7C2
:103F100057FC381908282FD81B48C0883D1A049828
:103F20001A49002802D0012828D10FE0002C25D002
:103F300068000A5A120A3270761C085C3070761CCF
:103F40006D1C641EA4B2002CF2D117E0002C15D019
:103F50003078761C01020D4B680019523278761CBD
:103F60000A431A526D1C641EA4B239463046FEF74D
:103F7000BFFE002CECD101E001200090FEF71CFCFC
:103F8000009805B0F0BD0000000000207C0100207A
:103F9000F8B505460F4614460026FEF715FCFFF758
:103FA00033FC3819082813D80C488088391A002C9B
:103FB0000FD00B4A4800135A1B0A2B706D1C105C63
:103FC00028706D1C491C641EA4B2002CF2D100E0C4
:103FD0000126FEF7F1FB3046F8BD0000000000208E
:103FE0006C010020FDF728FBFEF7C6FFFEF75CFC26
:103FF000FEF73EFCFEF7F0FBFEF710FDFEF726FD98
:10400000FF2201324C494D48FEF7BAFA4B4800688E
:104010000168102211430160FDF780FB0021484830
:10402000FCF730FD474D012291032846FDF7EFFADA
:10403000012240214448FDF7EAFA01210022490308
:104040002846FDF7E4FAFEF7FDFEFEF773FBFEF7E8
:1040500049FB3E48C07BFCF707FCFCF75DFDFFF722
:10406000D3FB00213A48FEF7FAF83A4E3A4D0027C2
:1040700028786978084302D10A20FDF783F9AC78E3
:10408000802C01D3AF7000240020002C05DD2A4ACB
:10409000115C3154401CA042FADBFCF735FC214690
:1040A0002C48FFF7BBFC0220FCF794FB2878012882
:1040B00037D001210020FEF737FE6878012835D07F
:1040C00002210020FEF730FE2148244A00681168D2
:1040D000436AC918116047622148FEF7B1FE2149C1
:1040E0000978884201D0FDF70BFB1F490868026878
:1040F000520852000260FF200A68013050600868D0
:104100000168012211430160287869780843AFD122
:10411000FDF7B0FF01210846FDF708FBFEF72CFF75
:10412000A6E701210846FEF7FFFDC6E702210120B0
:10413000FEF7FAFDC8E700008C010020880000208F
:1041400028000020000800500004005098040020BF
:1041500034010020A40300200000002010000020F3
:104160000000080878040020F800002070B50A4D0F
:10417000FF23EE1D1A46F93605E0047854402A5D07
:104180005A40335D401C0C46491EC9B2002CF4D184
:104190001802104370BD00000B42000810B44B051C
:1041A0001B0EDC00091B01249440641EE2B2C05CBB
:1041B000C840104010BC704770B4CC08E500491BE3
:1041C0008B40012595406D1E8D40065D021951788A
:1041D00009023143A94319430155080A507070BCC4
:1041E00070470000000001020304010203040607F7
:1041F0000809000000000000000001020304060797
:104200000809030406080C1018203000C181400181
:10421000C0804101C0804100C1814001C080410097
:10422000C1814000C1814001C0804101C080410086
:10423000C1814000C1814001C0804100C181400175
:10424000C0804101C0804100C1814001C080410067
:10425000C1814000C1814001C0804100C181400155
:10426000C0804101C0804100C1814000C181400146
:10427000C0804101C0804100C1814001C080410037
:10428000C1814000C1814001C0804101C080410026
:10429000C1814000C1814001C0804100C181400115
:1042A000C0804101C0804100C1814000C181400106
:1042B000C0804101C0804100C1814001C0804100F7
:1042C000C1814000C1814001C0804100C1814001E5
:1042D000C0804101C0804100C1814001C0804100D7
:1042E000C1814000C1814001C0804101C0804100C6
:1042F000C1814000C1814001C0804100C1814001B5
:10430000C0804101C0804100C1814000C0C101C3E3
:104310000302C2C60607C705C5C404CC0C0DCD0FE9
:10432000CFCE0E0ACACB0BC90908C8D81819D91B99
:10433000DBDA1A1EDEDF1FDD1D1CDC14D4D515D719
:104340001716D6D21213D311D1D010F03031F13369
:10435000F3F23236F6F737F53534F43CFCFD3DFF29
:104360003F3EFEFA3A3BFB39F9F83828E8E929EBF9
:104370002B2AEAEE2E2FEF2DEDEC2CE42425E52759
:10438000E7E62622E2E323E12120E0A06061A163C9
:10439000A3A26266A6A767A56564A46CACAD6DAF69
:1043A0006F6EAEAA6A6BAB69A9A86878B8B979BB19
:1043B0007B7ABABE7E7FBF7DBDBC7CB47475B57799
:1043C000B7B67672B2B373B17170B0509091519329
:1043D00053529296565797559594549C5C5D9D5FA9
:1043E0009F9E5E5A9A9B5B99595898884849894B79
:1043F0008B8A4A4E8E8F4F8D4D4C8C4484854587D9
:104400004746868242438341818040000687E0061A
:1044100089D4068BC8068DBC068FB00691A406937E
:104420009806958C06978006997406905C069F50B6
:1044300006A14406A33806A52C06A72006A9140643
:10444000AB0806ACFC06AEF006B0E4069B680000C4
:10445000704400080000002028000000CA3900084D
:104460009844000828000020D8080000DA39000825
:10447000000000000000000000000000000000003C
:10448000000000000000000000000000000000002C
:084490000000000080841E0002
:04000005080000C12E
:00000001FF
